:040000005BEF00F0C2
:100008007282D9CF02F0DACF03F09EAA0EEF00F089
:1000180010EF00F038EF00F0AECF6EF09E9A7150FE
:10002800D8A419EF00F01BEF00F026EF00F0AA0E9D
:100038006E18D8B422EF00F024EF00F026EF00F09D
:1000480055EF00F07150650FD96EDA6A6EC0DFFFA8
:10005800712A030E716433EF00F035EF00F038EFCA
:1000680000F0010E706E716A9EA03DEF00F03FEF48
:1000780000F055EF00F06D50CF6E6CC0CEFF8AA037
:1000880048EF00F04CEF00F0016A012A4DEF00F054
:10009800016A8A500118FE0B01188A6E010E6F6EF4
:1000A8009E9003C0DAFF02C0D9FF72921100BEEF22
:1000B8000BF02E50800B376E2E502E24396E2DAE3D
:1000C80068EF00F06AEF00F06BEF00F0398039500C
:1000D800D8B471EF00F073EF00F087EF00F0392823
:1000E800D8A479EF00F07BEF00F083EF00F0000E6A
:1000F8002B6E000E2C6E000E2D6E000E2E6E2D8EA9
:100108002E6A8FEF00F0000E2B6E000E2C6E000E84
:100118002D6E000E2E6E3250800B386E3750381808
:10012800D8B499EF00F09BEF00F09CEF00F0378C0B
:1001380032503224386E31AEA4EF00F0A6EF00F052
:10014800A7EF00F038803850D8B4ADEF00F0AFEF2B
:1001580000F0C3EF00F03828D8A4B5EF00F0B7EFEF
:1001680000F0BFEF00F0000E2F6E000E306E000E94
:10017800316E000E326E318E326ACBEF00F0000E17
:100188002F6E000E306E000E316E000E326E39503A
:10019800385CD8B0D2EF00F0D4EF00F0FBEF00F0FD
:1001A80037ACD9EF00F0DBEF00F0DDEF00F0800EA8
:1001B800371A39C03AF038C039F03AC038F02BC095
:1001C8003AF02FC02BF03AC02FF02CC03AF030C0D4
:1001D8002CF03AC030F02DC03AF031C02DF03AC0C2
:1001E80031F02EC03AF032C02EF03AC032F03A6AFE
:1001F800395038C033F0346A335E000E345A34BE96
:100208000FEF01F0345009E11A0E335CD8A00FEF5C
:1002180001F011EF01F048EF01F02B502C102D10D8
:100228002E10D8A41AEF01F01DEF01F0010E1EEFF9
:1002380001F0000E3A6E000E2B6E000E2C6E000EB2
:100248002D6E000E2E6E38C039F051EF01F03AA035
:1002580030EF01F032EF01F038EF01F0D8903A308A
:1002680001093A6E3AEF01F0D8903A322BA03FEFED
:1002780001F041EF01F042EF01F03A8E2E342E32B8
:100288002D322C322B32392A3850395CD8A04FEF16
:1002980001F051EF01F02BEF01F037BC56EF01F000
:1002A80058EF01F098EF01F03950D8A45EEF01F053
:1002B80060EF01F06AEF01F0000E2B6E000E2C6E5D
:1002C800000E2D6E000E2E6EB7EF02F02F502B266B
:1002D80030502C2231502D2232502E222EA077EF72
:1002E80001F079EF01F025EF02F03AA07EEF01F07E
:1002F80080EF01F086EF01F0D8903A3001093A6EAC
:1003080088EF01F0D8903A322BA08DEF01F08FEFF3
:1003180001F090EF01F03A8E2E342E322D322C322D
:100328002B32392A25EF02F02F502B5C30502C58F5
:1003380031502D582E50800A336E3250800A33586F
:10034800D8B0A9EF01F0ABEF01F0D6EF01F02B50D8
:100358002F5C336E2C503058346E2D503158356E1A
:100368002E503258366EFF0E33242B6EFF0E34207B
:100378002C6EFF0E35202D6EFF0E36202E6E800E51
:10038800371A3A6C3A50D8A4CCEF01F0CEEF01F00E
:10039800DEEF01F0010E2B26000E2C222D222E223C
:1003A800DEEF01F02F502B5E30502C5A31502D5A71
:1003B80032502E5A2B502C102D102E10D8A4E7EFA7
:1003C80001F0E9EF01F01EEF02F03A50D8A4EFEF88
:1003D80001F0F1EF01F01EEF02F0000E2B6E000E9F
:1003E8002C6E000E2D6E000E2E6EB7EF02F0D89018
:1003F8002B362C362D362E363AAE05EF02F007EFA7
:1004080002F008EF02F02B803AA00DEF02F00FEF98
:1004180002F013EF02F0D8803A3615EF02F0D890C8
:100428003A363950D8B41BEF02F01DEF02F01EEF38
:1004380002F039062DAE23EF02F025EF02F0FBEFB4
:1004480001F0386A3AAE2BEF02F02DEF02F045EFDB
:1004580002F03AC033F07F0E3316D8B436EF02F00C
:1004680038EF02F03CEF02F0010E386E45EF02F073
:100478002BA041EF02F043EF02F045EF02F038EF16
:1004880002F03850D8B44BEF02F04DEF02F078EF9D
:1004980002F0010E2B26000E2C222D222E222EA039
:1004A80058EF02F05AEF02F078EF02F02BC033F069
:1004B8002CC034F02DC035F02EC036F0363436322C
:1004C80035323432333233C02BF034C02CF035C0DF
:1004D8002DF036C02EF03928D8B475EF02F077EF3A
:1004E80002F078EF02F0392A3928D8B47EEF02F00A
:1004F80080EF02F088EF02F03950D8A486EF02F0BE
:1005080088EF02F099EF02F0000E2B6E000E2C6EB1
:10051800000E2D6E000E2E6E3950D8A496EF02F004
:1005280098EF02F099EF02F0376A39A09EEF02F0D7
:10053800A0EF02F0A3EF02F02D8EA4EF02F02D9EA3
:10054800D89039302E6E37AEACEF02F0AEEF02F035
:10055800AFEF02F02E8E2BC02BF02CC02CF02DC04C
:100568002DF02EC02EF0120093908A9093928A92CA
:1005780093988A98928C928E556A636ADC0E4F6EB5
:10058800000E626E000E616E000E4E6E000E4D6E15
:10059800000E496E000E4A6E000E4B6E000E4C6E39
:1005A800CBEC0BF098EC0BF0B00E1D6E040E1E6E2B
:1005B800000E1F6E000E206E19EC0BF0ADEC0BF068
:1005C8007050D8B4EAEF02F0ECEF02F0F5EF02F069
:1005D80066C055F06750456E6850616E45C062F060
:1005E800706A4D50611807E14E506218D8A4FFEFA9
:1005F80002F001EF03F00AEF03F054505518D8B495
:1006080008EF03F00AEF03F027EF04F0CD8061C094
:100618004DF062C04EF055C054F05450046E056A57
:10062800066A076A640E086E000E096E000E0A6EEE
:10063800000E0B6E63EC0BF004C010F005C011F057
:1006480006C012F007C013F04F50146E156A166AF0
:10065800176AC7EC0AF010C047F011C048F0800EC6
:10066800046E960E056E980E066E000E076E61C03B
:1006780045F062C046F0453A463AF00E46164550F7
:100688000F0B4612F00E451645C008F046C009F09B
:100698000A6A0B6ABFEC09F0041C6C6E051C6D6ECF
:1006A800000E126E400E136E1C0E146E450E156E63
:1006B80061C004F062C005F0066A076A000EE5EC46
:1006C80008F004C016F005C017F006C018F007C0FF
:1006D80019F01DEC07F012C050F013C051F014C00F
:1006E80052F015C053F0000E126E000E136EB40EC9
:1006F800146E420E156E50C016F051C017F052C05D
:1007080018F053C019F01DEC07F012C049F013C0DF
:100718004AF014C04BF015C04CF050C03BF051C02B
:100728003CF052C03DF053C03EF044EC0AF03B5060
:10073800636E606A1EEF04F0000E2F6E000E306EBE
:10074800000E316E3F0E326E49C016F04AC017F0E7
:100758004BC018F04CC019F06050046E056A066A68
:10076800076A010EE5EC08F004C012F005C013F0AA
:1007780006C014F007C015F00AEC05F012C02BF003
:1007880013C02CF014C02DF015C02EF05DEC00F055
:100798002BC03BF02CC03CF02DC03DF02EC03EF0ED
:1007A80044EC0AF03B50576E5A0E5764DEEF03F0E4
:1007B800E0EF03F0E2EF03F05A0E576E5750040DC6
:1007C800930EF324F66E1E0EF420F76E0900F5CF93
:1007D80016F00900F5CF17F00900F5CF18F00A0058
:1007E800F5CF19F047C004F048C005F0066A076A5B
:1007F800000EE5EC08F004C012F005C013F006C0C6
:1008080014F007C015F00AEC05F012C03BF013C055
:100818003CF014C03DF015C03EF044EC0AF06050C6
:10082800020DF3506A0FD96EDA6A3BC0DEFF3CC096
:10083800DDFF602A6350605CD8A025EF04F027EF45
:1008480004F0A0EF03F06F04D8A42DEF04F02FEF0D
:1008580004F098EF04F05650D8A435EF04F037EFC1
:1008680004F098EF04F0646A5BEF04F06450020D42
:10087800F3506A0FD96EDA6ADECF58F0DDCF59F03F
:1008880058C045F059C046F0D89045364636D890FD
:100898004536463645C058F046C059F058C091FF15
:1008A8005950906E460EE82EFED700D0642A635049
:1008B800645CD8A062EF04F064EF04F03AEF04F04F
:1008C8006304646E6450D8A46CEF04F06EEF04F017
:1008D80070EF04F093EF04F06450020DF3506A0FC8
:1008E800D96EDA6ADECF5AF0DDCF5BF05AC045F038
:1008F8005BC046F0D89045364636D89045364636E1
:1009080045C05AF046C05BF05AC091FF5B50906EEC
:10091800460EE82EFED700D0640666EF04F06F6A34
:10092800010E566EE4EF02F06F04D8A49EEF04F0B7
:10093800A0EF04F0E4EF02F05604D8A4A6EF04F008
:10094800A8EF04F0E4EF02F06304646E6450D8A4E6
:10095800B0EF04F0B2EF04F0B4EF04F0D7EF04F016
:100968006450020DF3506A0FD96EDA6ADECF5CF07C
:10097800DDCF5DF05CC045F05DC046F0D8904536EF
:100988004636D8904536463645C05CF046C05DF0E0
:100998005CC091FF5D50906E460EE82EFED700D0E9
:1009A8006406AAEF04F0646AFBEF04F06450020DD9
:1009B800F3506A0FD96EDA6ADECF5EF0DDCF5FF0F2
:1009C8005EC045F05FC046F0D89045364636D890B0
:1009D8004536463645C05EF046C05FF05EC091FFC2
:1009E8005F50906E460EE82EFED700D0642A635002
:1009F800645CD8A002EF05F004EF05F0DAEF04F02C
:100A08006F6A566AE4EF02F05BEF00F01550800B56
:100A18001E6E15501524246E14AE15EF05F017EF51
:100A280005F018EF05F024802450D8B41EEF05F027
:100A380020EF05F033EF05F02428D8A426EF05F0C1
:100A480028EF05F030EF05F0000E126E000E136E61
:100A5800000E146E000E156E148E3BEF05F0000E9E
:100A6800126E000E136E000E146E000E156E1950E5
:100A7800800B1E1A19501924236E18AE46EF05F084
:100A880048EF05F049EF05F023802350D8B44FEF25
:100A980005F051EF05F064EF05F02328D8A457EFCF
:100AA80005F059EF05F061EF05F0000E166E000E27
:100AB800176E000E186E000E196E188E6CEF05F08A
:100AC800000E166E000E176E000E186E000E196ED0
:100AD8002350D8B472EF05F074EF05F07CEF05F001
:100AE8002450D8A47AEF05F07CEF05F086EF05F0E6
:100AF800000E126E000E136E000E146E000E156EB0
:100B08001CEF07F018501202F3CF29F0F4CF2AF0A7
:100B180029501F6E206A216A226A2A50256E266A89
:100B2800276A286A17501302F3CF29F0F4CF2AF066
:100B380029501F26000E2022212222222A50252653
:100B4800000E26222722282216501402F3CF29F05D
:100B5800F4CF2AF029501F26000E2022212222221B
:100B68002A502526000E26222722282221C022F0DC
:100B780020C021F01FC020F01F6A16501302F3CFC7
:100B880029F0F4CF2AF029501F262A502022000EDF
:100B98002122000E222217501202F3CF29F0F4CF9F
:100BA8002AF029501F262A502022000E2122000E4A
:100BB800222221C022F020C021F01FC020F01F6A8D
:100BC80016501202F3CF29F0F4CF2AF029501F262D
:100BD8002A502022000E2122000E22221850130231
:100BE800F3CF29F0F4CF2AF0295025262A502622BF
:100BF800000E2722000E282217501402F3CF29F0E6
:100C0800F4CF2AF0295025262A502622000E272222
:100C1800000E282218501402F3CF29F0F4CF2AF03E
:100C280029501A6E2A501B6E1C6A1D6A1CC01DF0C2
:100C38001BC01CF01AC01BF01A6A1A5025261B503C
:100C480026221C5027221D5028221FC01AF020C01F
:100C58001BF021C01CF022C01DF0190E39EF06F060
:100C6800D8901D321C321B321A32E82E34EF06F0AF
:100C78001A5025261B5026221C5027221D50282298
:100C880021C022F020C021F01FC020F01F6A23508D
:100C980024C01AF01B6A1A26000E1B22820E1A2480
:100CA800296EFF0E1B202A6E6FEF06F0D8902536AE
:100CB80026362736283622AE64EF06F066EF06F0B1
:100CC80067EF06F02580D8901F3620362136223669
:100CD8002906D8A02A0627AE74EF06F076EF06F0AC
:100CE8005AEF06F0236A22AE7CEF06F07EEF06F09C
:100CF800A2EF06F0FF0E1F141A6EFF0E20141B6ED3
:100D0800FF0E21141C6E7F0E22141D6E1A501B102C
:100D18001C101D10D8B493EF06F095EF06F099EF6C
:100D280006F0010E236EA2EF06F025A09EEF06F056
:100D3800A0EF06F0A2EF06F095EF06F02350D8B426
:100D4800A8EF06F0AAEF06F0CEEF06F0010E252672
:100D5800000E26222722282228A0B5EF06F0B7EF9A
:100D680006F0CEEF06F025C01AF026C01BF027C00B
:100D78001CF028C01DF01D341D321C321B321A32E3
:100D88001AC025F01BC026F01CC027F01DC028F093
:100D9800294A2A2A2ABED9EF06F02A5008E129282A
:100DA800D8A0D9EF06F0DBEF06F0E5EF06F0000E6D
:100DB800256E000E266E800E276E7F0E286E12EFAF
:100DC80007F02ABEF2EF06F02A5006E12904D8B04F
:100DD800F0EF06F0F2EF06F0FDEF06F0000E256EDC
:100DE800000E266E000E276E000E286E1E6A12EF89
:100DF80007F029C024F0FF0E2516FF0E26167F0ED9
:100E08002716000E281624A00CEF07F00EEF07F0A7
:100E18000FEF07F0278ED8902430286E1E50281226
:100E280025C012F026C013F027C014F028C015F012
:100E380012001550800B226E15501524296E14AE21
:100E480028EF07F02AEF07F02BEF07F02980295049
:100E5800D8B431EF07F033EF07F047EF07F0292850
:100E6800D8A439EF07F03BEF07F043EF07F0000E87
:100E7800126E000E136E000E146E000E156E148E98
:100E8800156A4FEF07F0000E126E000E136E000E7B
:100E9800146E000E156E1950800B221A1950192461
:100EA8002A6E18AE5AEF07F05CEF07F05DEF07F017
:100EB8002A802A50D8B463EF07F065EF07F079EF7E
:100EC80007F02A28D8A46BEF07F06DEF07F075EF4D
:100ED80007F0000E166E000E176E000E186E000E4C
:100EE800196E188E196A81EF07F0000E166E000E43
:100EF800176E000E186E000E196E16501710181087
:100F08001910D8A48AEF07F08CEF07F0A4EF07F0C8
:100F1800000E126E000E136E000E146E000E156E8B
:100F2800800E14127F0E15122250151212C012F0E4
:100F380013C013F014C014F015C015F0E4EF08F056
:100F48002950D8A4AAEF07F0ACEF07F0B6EF07F0E6
:100F5800000E126E000E136E000E146E000E156E4B
:100F6800E4EF08F02A5029C01AF01B6A1A5E000E36
:100F78001B5A7F0E1A24236E000E1B20246E12C0EB
:100F88001EF013C01FF014C020F015C021F0000E91
:100F9800126E000E136E000E146E000E156E000E0B
:100FA800256E000E266E000E276E000E286E2A6A29
:100FB80016EF08F02A50D8B4E4EF07F0E6EF07F090
:100FC800FDEF07F0D8901E361F3620362136D89010
:100FD800123613361436153628AEF5EF07F0F7EF4C
:100FE80007F0F8EF07F01280D89025362636273616
:100FF800283616501E5C17501F5818502058195084
:101008002158D8A00AEF08F00CEF08F015EF08F007
:10101800288C16501E5E17501F5A1850205A195007
:10102800215A2A2A190E2A641CEF08F01EEF08F02C
:10103800DEEF07F01E501F1020102110D8B427EF44
:1010480008F029EF08F041EF08F0258041EF08F09B
:10105800D890123613361436153628AE36EF08F007
:1010680038EF08F039EF08F01280D8902536263688
:10107800273628362306D8A0240614AE46EF08F0F3
:1010880048EF08F02CEF08F02A6A28AE4EEF08F077
:1010980050EF08F074EF08F0FF0E25141A6EFF0EDB
:1010A80026141B6EFF0E27141C6E7F0E28141D6E4F
:1010B8001A501B101C101D10D8B465EF08F067EF0C
:1010C80008F06BEF08F0010E2A6E74EF08F012A01A
:1010D80070EF08F072EF08F074EF08F067EF08F0AF
:1010E8002A50D8B47AEF08F07CEF08F0A0EF08F0A7
:1010F800010E1226000E13221422152215A087EFC6
:1011080008F089EF08F0A0EF08F012C01AF013C039
:101118001BF014C01CF015C01DF01D341D321C320C
:101128001B321A321AC012F01BC013F01CC014F084
:101138001DC015F0234A242A24BEABEF08F0245022
:1011480008E12328D8A0ABEF08F0ADEF08F0B8EF1E
:1011580008F0000E246E2368000E126E000E136E47
:10116800000E146E000E156E24BEC5EF08F0245054
:1011780006E12304D8B0C3EF08F0C5EF08F0D2EFBA
:1011880008F0000E246E000E236E000E126E000E84
:10119800136E000E146E000E156E226A23C029F01D
:1011A80029A0D9EF08F0DBEF08F0DEEF08F0148E85
:1011B800DFEF08F0149ED8902930156E98EF07F0ED
:1011C80012000C6E0C50D8B4ECEF08F0EEEF08F0FB
:1011D80010EF09F007BEF5EF08F0F3EF08F010EF95
:1011E80009F004C008F005C009F006C00AF007C0FD
:1011F8000BF0081E091E0A1E0B1E082A000E0922E3
:101208000A220B2208C00EF009C00FF00AC010F025
:101218000BC011F018EF09F004C00EF005C00FF074
:1012280006C010F007C011F0045005100610071092
:10123800D8A421EF09F023EF09F02DEF09F0000EF3
:10124800046E000E056E000E066E000E076EBEEFF1
:1012580009F0960E0D6E37EF09F00D2AD89011326D
:1012680010320F320E32000E0E14086E000E0F14DC
:10127800096E000E10140A6EFE0E11140B6E085043
:1012880009100A100B10D8A44CEF09F04EEF09F022
:1012980031EF09F05CEF09F00D2A010E0E26000E61
:1012A8000F2210221122D890113210320F320E3232
:1012B800000E0E14086E000E0F14096E000E1014A6
:1012C8000A6EFF0E11140B6E085009100A100B104D
:1012D800D8A471EF09F073EF09F050EF09F07BEF34
:1012E80009F00D06D8900E360F361036113610BE9E
:1012F80080EF09F082EF09F08AEF09F0020E0D6025
:1013080088EF09F08AEF09F075EF09F00DB08FEF5B
:1013180009F091EF09F092EF09F0109ED8900D3284
:101328000DC008F0096A0A6A0B6A08C00BF00A6A5D
:10133800096A086A08500E1209500F120A50101252
:101348000B5011120C50D8B4ACEF09F0AEEF09F005
:10135800B6EF09F007BEB5EF09F0B3EF09F0B6EF45
:1013680009F0118E0EC004F00FC005F010C006F091
:1013780011C007F012000D6A0BBEC7EF09F0C5EFE8
:1013880009F0D1EF09F00B1E0A1E091E086C000EA9
:1013980009220A220B22010E0D6E07BED8EF09F0B2
:1013A800D6EF09F0E2EF09F0071E061E051E046CD1
:1013B800000E052206220722010E0D1A000E0E6EDF
:1013C800000E0F6E000E106E000E116E0850091000
:1013D8000A100B10D8B4F3EF09F0F5EF09F02BEF72
:1013E8000AF0010E0C6EFFEF09F0D89008360936A6
:1013F8000A360B360C2A0BAE04EF0AF006EF0AF099
:10140800F9EF09F0D8900E360F361036113608501D
:10141800045C095005580A5006580B500758D8A0C4
:1014280018EF0AF01AEF0AF023EF0AF00850045EEA
:101438000950055A0A50065A0B50075A0E80D89080
:101448000B320A32093208320C2E06EF0AF00D5020
:10145800D8B431EF0AF033EF0AF03BEF0AF0111E6F
:10146800101E0F1E0E6C000E0F22102211220EC02D
:1014780004F00FC005F010C006F011C007F012000C
:101488003D343E34446E4450D8A44DEF0AF04FEF3B
:101498000AF059EF0AF0000E3B6E000E3C6E000E8B
:1014A8003D6E000E3E6EC6EF0AF03BC03FF03CC0FA
:1014B80040F03DC041F03EC042F0200E69EF0AF016
:1014C800D8904232413240323F32E82E64EF0AF07F
:1014D8003F50436E3D8EFF0E3B16FF0E3C16FF0E2F
:1014E8003D16000E3E16960E445E44BE80EF0AF08E
:1014F8007EEF0AF096EF0AF04450800A970FD8B0B2
:1015080088EF0AF08AEF0AF08CEF0AF04FEF0AF042
:10151800D8903E323D323C323B32443E8CEF0AF0AA
:10152800AEEF0AF01F0E44649CEF0AF09EEF0AF03B
:10153800A6EF0AF04FEF0AF0D8903B363C363D361E
:101548003E3644064450D8A4ACEF0AF0AEEF0AF099
:10155800A0EF0AF04350D8B4B4EF0AF0B6EF0AF09F
:10156800BEEF0AF03E1E3D1E3C1E3B6C000E3C22A8
:101578003D223E223BC03BF03CC03CF03DC03DF02C
:101588003EC03EF01200000E186E000E196E000EDE
:101598001A6E000E1B6E1450151016101710D8B4C2
:1015A800D8EF0AF0DAEF0AF010EF0BF0010E1C6E1C
:1015B800E4EF0AF0D89014361536163617361C2A7A
:1015C80017AEE9EF0AF0EBEF0AF0DEEF0AF0D89079
:1015D800183619361A361B361450105C1550115827
:1015E8001650125817501358D8A0FDEF0AF0FFEF05
:1015F8000AF008EF0BF01450105E1550115A1650EF
:10160800125A1750135A1880D890173216321532BA
:1016180014321C2EEBEF0AF018C010F019C011F0AC
:101628001AC012F01BC013F01200800E106E960E36
:10163800116E980E126E000E136E1DC021F01EC0A2
:1016480022F01FC023F020C024F0040ED8902136C9
:10165800223623362436E82E2AEF0BF021C014F068
:1016680022C015F023C016F024C017F0C7EC0AF00A
:10167800FF0E1024256EFF0E1120266E2604D8B00A
:1016880048EF0BF04AEF0BF051EF0BF0AC84B89633
:1016980025C0AFFFB06A57EF0BF0AC94B88625C0F1
:1016A800AFFF2650B06E92869294AC98AC8AAB8EFF
:1016B800AB889E9A9D8A9F8AF28CF28E1200000E49
:1016C8000C6E000E0D6E000E0E6E000E0F6E04A056
:1016D80070EF0BF072EF0BF07AEF0BF008500C265E
:1016E80009500D220A500E220B500F22D8900836AE
:1016F80009360A360B36D8900732063205320432DC
:101708000450051006100710D8A48DEF0BF08FEFCA
:101718000BF06BEF0BF00CC004F00DC005F00EC021
:1017280006F00FC007F01200956AFA0E966EFC0ECE
:101738009A160F0E9A16F30E9A16998E86508F0BDC
:101748001009866E8650F80B0109866E916A906AB8
:1017580012006D50CF6E6CC0CEFFCD8ECD50CF0B2A
:101768001009CD6ECD96CD94CD929E909D80F28E2F
:10177800F28C120000EE65F00D0EEE6AE806FDE14F
:1017880072907292000EF86E0001B8EF02F0D38EDC
:0217980012003D
:101E920000000000007FF78E3C41F20E3D465E5688
:101EA2003D3CDC8E3DD87EB23DC712D63D7496F9DC
:101EB2003D5E830E3E3C30203EC8D0313E6F6343D0
:101EC2003EE2E6543E8E59663E67BA773EED838423
:101ED2003E4B208D3EA7B1953E7A379E3ED9B0A6A5
:101EE2003E3F1DAF3E037CB73E5CCCBF3EE50DC816
:101EF2003EB33FD03E6361D83E2A72E03E6171E854
:101F02003E815EF03EE338F83E0000003F88D90390
:101F12003FC6A8073F766D0B3F46270F3FE0D5121D
:101F22003F1479163F8C101A3FF69B1D3F1E1B2152
:101F32003FB08D243F7CF3273F1B4C2B3F6C972EE9
:101F42003F1BD5313FF704353F9A26383FF3393BE3
:101F52003FAF3E3E3FAD34413F761B443F0AF3461E
:101F62003F06BB493F58734C3FBD1B4F3FF2B35135
:101F72003FD63B543F25B3563FAC19593F4C6F5B9C
:101F82003FD0B35D3F08E75F3FD108623FF8186476
:101F92003F5D17663FBC03683F16DE693F26A66BAE
:101FA2003FDD5B6D3F19FF6E3FA88F703F780D726A
:101FB2003F6878733F57D0743F3315763FED4677CD
:101FC2003F4165783F5070793FD7677A3FE84B7B56
:101FD2003F611C7C3F1FD97C3F34827D3F7F177E4F
:101FE2003FFE987E3FA3067F3F5B607F3F37A67F21
:0E1FF2003F17D87F3F0AF67F3F0000803F0078
:020000040030CA
:0E000000FF021F1E028181FF03C003E00340C8
:00000001FF
