:040000008331DF2B3E
:1000060008007E1480314E018C1E0A280B28AE2B68
:100016008C1206304B019C009E1740015F08031DA1
:10002600152816286E285C03031D1A281B286E281F
:1000360001304101BA070030BB3D40016B08F100B9
:100046006A08F0006430F2000030F3009731E127CF
:10005600803141013B087106031D33283A087006BA
:10006600031D362837286E2801304001DF00410184
:10007600DF01BA01BB01BE01BF014001E0016F080B
:100086000319462847286B286108CF00D0014F087E
:10009600F6005008F7006F08D100D2015108F000B1
:1000A6005208F1006430F2000030F3009731E12786
:1000B60080317108F9007008F8008B318723803190
:1000C60076084001EE006E08031D6A286B286E282C
:1000D6000130EE006E2841015F08031D7328742865
:1000E6009F2840015B08031D79287A289F28410133
:1000F6005E03031D7F2880289F280130B807003043
:10010600B93D40016908F1006808F0006430F2006A
:100116000030F3009731E12780314101390871063B
:10012600031D972838087006031D9A289B289F28C8
:100136000130DF00B801B90140015F080319A428A6
:10014600A528DF286008031DA928AA28DF28013072
:100156004101E0000130C0070030C13D40016E089A
:10016600CF00D001500841014102031DBE284001C5
:100176004F0841014002031CC128C228DF28C001E4
:10018600C10140016108CF00D001500841013F0282
:10019600031DD12840014F0841013E020318D4280F
:1001A600D528DA280130BE070030BF3DDF280130F0
:1001B6004001E0004101E00101304101DD070A3064
:1001C6005D06031DE728E828ED288531692580317D
:1001D6004101DD0157080319F128F228FF280130F3
:1001E600D90764305906031DF928FA28FF2801307B
:1001F6004001D9004101D9015608031903290429F0
:1002060011290130D80796305806031D0B290C29F1
:10021600112901304001D8004101D8010130AC0755
:100226000030AD3D13302D02883003192C02031C1B
:100236001D291E29242901304001D7004101AC01A6
:10024600AD0140010C1A2829292944290130410110
:10025600AE070030AF3D00302F02643003192E0286
:10026600031C36293729442909302F02C4300319C3
:100276002E0203183F29402944290130D500AE013A
:10028600AF0140018C194829492961298C1E4C2946
:100296004D2961290130D3070030D43D4101EA01DF
:1002A600093040015402C43003195302031C5C296F
:1002B6005D297D2901304101DC007D290030540291
:1002C600643003195302031C69296A297629093007
:1002D6005402C4300319530203187229732976296C
:1002E60001304101DA004001D301D401013041015E
:1002F600EA00DC0140018C198129822997298C1A90
:1003060085298629972901304101B2070030B33D7E
:1003160009303302C43003193202031C932994298D
:100326009B290130DB009B294101B201B301DB01AE
:10033600400155035604031DA129A229B5295D359F
:10034600623E860001308700403FCF00413FD0002B
:1003560030304F0784001030503D8038850000084B
:10036600DE00A82A023055065604031DBB29BC2907
:10037600CF295D35583E860001308700403FCF00CB
:10038600413FD00030304F0784001030503D803858
:1003960085000008DE00A82A033055065604031D12
:1003A600D529D629F0295D354E3E860001308700D5
:1003B600403FCF00413FD00030304F07840010301F
:1003C600503D803885000008DE0003305D06031DC1
:1003D600ED29EE29A82ADE17A82A04305506560468
:1003E600031DF629F729102A5D35443E86000130A3
:1003F6008700403FCF00413FD00030304F07840098
:100406001030503D803885000008DE0003305D0660
:10041600031D0E2A0F2AA82AEE2905305506560472
:10042600031D162A172A312A5D353A3E8600013009
:100436008700403FCF00413FD00030304F07840057
:100446001030503D803885000008DE0003305D0620
:10045600031D2E2A2F2AA82AEE29A82A0630550679
:100466005604031D372A382A402A5D35303E860059
:10047600013087000108DE00A82A07305506560419
:10048600031D462A472A4F2A5D35DC3E8600013089
:1004960087000108DE00A82A083055065604031D09
:1004A600552A562A5E2A5D35D23E860001308700DF
:1004B6000108DE00A82A093055065604031D642AE1
:1004C600652A6D2A5D35C83E860001308700010821
:1004D600DE00A82A0A3055065604031D732A742A1C
:1004E6007C2A5D35BE3E8600013087000108DE00AD
:1004F600A82A0B3055065604031D822A832A8B2A06
:100506005D35B43E8600013087000108DE00A82A6A
:100516000C3055065604031D912A922A9A2A5D35F7
:10052600AA3E8600013087000108DE00A82A0F30A7
:1005360055065604031DA02AA12A302A5D35A03E81
:100546008600013087000108DE001B135E08990053
:100556005E1CAE2AAF2AB12A9014B22A901001303E
:100566004101EC0640011B130230550656040319DF
:10057600BD2ABE2AEC2A55035604031DC32AC42AE3
:10058600F72AEC2A1B1506304001CF003030890BC4
:10059600CA2ACF0BCA2A000040011B11A42B9B14A8
:1005A60006304001CF003030890BD72ACF0BD72A2F
:1005B600000040019B10A42B1B1406304001CF0005
:1005C6003030890BE42ACF0BE42A000040011B10CF
:1005D600A42B5D08023A0319C52A013A0319D22A47
:1005E600073A0319DF2AA42B0630550656040319C9
:1005F600FD2AFE2A712B0730550656040319042BD3
:10060600052B712B08305506560403190B2B0C2BA2
:10061600712B0930550656040319122B132B712B17
:100626000A30550656040319192B1A2B712B0B3059
:10063600550656040319202B212B712B0C30550619
:1006460056040319272B282B712B0F3055065604F9
:10065600031D2E2B2F2B9C2B712B1B1606304001B6
:10066600CF003030890B352BCF0B352B00004001E6
:100676001B12A42B9B1506304001CF003030890B8E
:10068600422BCF0B422B000040019B11A42B1B15C4
:1006960006304001CF003030890B4F2BCF0B4F2B4C
:1006A600000040011B11A42B9B1406304001CF0013
:1006B6003030890B5C2BCF0B5C2B000040019B106C
:1006C600A42B1B1406304001CF003030890B692B58
:1006D600CF0B692B000040011B10A42B5D08003ACC
:1006E6000319302B013A03193D2B033A03194A2B00
:1006F600013A0319572B073A0319642BA42B9B14B1
:1007060006304001CF003030890B872BCF0B872B6B
:10071600000040019B10A42B1B1406304001CF00A3
:100726003030890B942BCF0B942B000040011B100B
:10073600A42B5D08033A0319822B073A03198F2B62
:10074600A42B1B130130DD0705305D02031CAC2B07
:10075600AD2BAE2BDD010B1FB12BB22BDD2B4E01CA
:100766009D1EB62BB72BBE2B931EBA2BBB2BBE2BB7
:100776009631DE2680314E01191EC22BC32BCE2B9D
:100786000F1EC62BC72BCE2B42016F088A006E08A0
:100796000A008331DD2B991ED12BD22BDD2B8F1E28
:1007A600D52BD62BDD2B42016D088A006C080A007A
:1007B6008331DD2B7E1009008331E12BF13084007B
:1007C600963085001200E8001200E9001200EA00E7
:1007D6001200EB001200EC001200ED001200EE0019
:1007E6001200EF0041019631E4268331EA0096318A
:1007F600E5268331EB009631E6268331EC0028307E
:10080600840027308500C830FE000030FF008731A5
:10081600F4278331FC01FD0153308400003085004C
:100826001530FE000030FF008731F4278331A030F9
:100836008400003085004A30FE000030FF0087311A
:10084600F427833120308400013085004C30FE00CF
:100856000030FF008731F4278331A0308400013057
:1008660085004E30FE000030FF008731F4278331CB
:1008760020308400023085004230FE000030FF0048
:100886008731F4278331A030840002308500403060
:10089600FE000030FF008731F42783317E104001CF
:1008A6008C31442C40018C1A592C5A2CC62C8C1D88
:1008B6005D2C5E2CC62C01304101D7004001590841
:1008C6000319662C672C782C01306D0290300319C1
:1008D6006C0203186F2C702C782C0130EC0700305A
:1008E600ED3D4101D7014001D9014201D801D901AD
:1008F600DA01DB010A30F7000030F8006430F0005E
:100906000030F10040016D08F3006C08F2008931F7
:100916005E2184317108FA007008F9008831F620EA
:10092600843178084201DD007708DC000A30F700E0
:100936000030F8000A30F0000030F10040016D0888
:10094600F3006C08F20089315E2184317108FA00E7
:100956007008F9008831F620843178084201DF00FA
:100966007708DE000A30F7000030F80040016D0815
:10097600FA006C08F9008831F620843178084201C3
:10098600E1007708E00040018C18CA2CCB2C372DEB
:100996008C1DCE2CCF2C372D01304101D7004001C4
:1009A60059080319D72CD82CE92C00306D022930B0
:1009B60003196C02031CE02CE12CE92C0130EC023B
:1009C6000030ED3B4101D7014001D9014201D80178
:1009D600D901DA01DB010A30F7000030F800643093
:1009E600F0000030F10040016D08F3006C08F200E1
:1009F60089315E2184317108FA007008F900883166
:100A0600F620843178084201DD007708DC000A30E0
:100A1600F7000030F8000A30F0000030F100400125
:100A26006D08F3006C08F20089315E21843171088B
:100A3600FA007008F9008831F620843178084201FE
:100A4600DF007708DE000A30F7000030F8004001CA
:100A56006D08FA006C08F9008831F62084317808B0
:100A66004201E1007708E00040011B1799140630A7
:100A76004001A0003030890B3E2DA00B3E2D00001A
:100A8600400199101B13570803194A2D4B2D632D4E
:100A9600D701AA30F000883107208431400161086F
:100AA600F00088310720843140016D08F00088315C
:100AB6000720843140016C08F0008831072084311A
:100AC60002304001D5000030D6000800410155082B
:100AD60003196E2D6F2D8D2D40015B08031D742D9E
:100AE600752D882D0130DB000130DC00DA010B307A
:100AF6004001CE002630CD005D30890B802DCD0B18
:100B0600802DCE0B802D00328B2DDB01DC017A2D62
:100B16004101D50140015B03031D922D932D572EF4
:100B260041015B080319982D992DBC2D40015C03EA
:100B3600031D9E2D9F2DA42D0230DC004101EB01EB
:100B4600AD2D02305C06031DA92DAA2DAD2D013059
:100B5600DC00DA0115304001CE004B30CD00BE304E
:100B6600890BB32DCD0BB32DCE0BB32D0000410158
:100B7600DB015C080319C02DC12DE42D40015C0387
:100B8600031DC62DC72DCF2D5A08031DCB2DCC2DE9
:100B9600CF2D0130DA00D52D5C03031DD32DD42DC6
:100BA600D52DDA0115304001CE004B30CD00BE30D8
:100BB600890BDB2DCD0BDB2DCE0BDB2D0000410190
:100BC600DC015A080319E82DE92D572E40015C0374
:100BD600031DEE2DEF2D122EFC2D0230DA00552EC0
:100BE6000330DA00552E0430DA00552E0130DA00D3
:100BF600552E5A08CD00CE014E08003A0319042E90
:100C0600552E4D08013A0319F02D033A0319F32D19
:100C1600013A0319F62D073A0319F92D552E02301C
:100C26005C06031D172E182E552E342E0130410159
:100C3600EB00552E02304101EB00552E03304101E9
:100C4600EB00552E04304101EB00552E05304101D5
:100C5600EB00552E06304101EB00552E4101EB010C
:100C6600552E41016B084001CD00CE014E08003AD9
:100C760003193E2E552E4D08003A0319192E013A36
:100C860003191D2E033A0319212E013A0319252EA5
:100C9600073A0319292E013A03192D2E033A03198F
:100CA600312E552E4101DA0187314A278531080058
:100CB60040018C1A5F2E602EBA2E8C1D632E642E78
:100CC600BA2E01304101D7004001590803196C2E94
:100CD6006D2E792E62306F020318722E732E792EC6
:100CE6000130EF074101D7014001D9014201BA01A4
:100CF600BB01BC01BD01BE01BF010A304001A40019
:100D06000030A5000A30F6000030F7006F08A80092
:100D1600A9012808F8002908F9008B3187238631B4
:100D260077084001A7007608A6008A318522863119
:100D3600400125084201C100400124084201C000CB
:100D46000A304001A4000030A5006F08A800A901E0
:100D56002808A6002908A7008A3185228631400185
:100D660025084201C300400124084201C200400197
:100D76008C18BE2EBF2E182F8C1DC22EC32E182FD8
:100D860001304101D600400158080319CB2ECC2E64
:100D9600D72E6F080319D02ED12ED72E0130EF0291
:100DA6004101D6014001D8014201BA01BB01BC0193
:100DB600BD01BE01BF010A304001A4000030A500FC
:100DC6000A30F6000030F7006F08A800A9012808CD
:100DD600F8002908F9008B3187238631770840010E
:100DE600A7007608A6008A318522863140012508AB
:100DF6004201C100400124084201C0000A304001FE
:100E0600A4000030A5006F08A800A9012808A600C4
:100E16002908A7008A31852286314001250842012A
:100E2600C300400124084201C20040011B171916E5
:100E360006304001A8003030890B1F2FA80B1F2F4A
:100E46000000400119121B13570803192B2F2C2FD2
:100E5600442FD701AA30F00088310720863140019F
:100E66006108F00088310720863140016D08F000E6
:100E760088310720863140016C08F0008831072050
:100E8600863105304001D5000030D600080040010B
:100E96005B08031D4F2F502F592F9C1099141911C1
:100EA600991119128A3134228731F32F5C03031DFD
:100EB6005D2F5E2FA52F8C2F9C1499101911991157
:100EC60019128D3176258731F32F9C10991419113B
:100ED60099111912843155248731F32F9C109910DA
:100EE6001915991119128F3123278731F32F9C1069
:100EF60099101911991519128E3146268731F32F3B
:100F06009C10991019119911191686315B26873193
:100F1600F32F5A08CB00CC014C08003A0319942F42
:100F2600F32F4B08003A03195F2F013A0319682F74
:100F3600033A0319712F013A03197A2F073A031955
:100F4600832FF32F02305C06031DAA2FAB2FF32F3E
:100F5600D22F883150208731F32F8831A020873156
:100F6600F32F883178208731F32F9C10991099132D
:100F7600991119168831C8208731F32F9C109910C2
:100F86009917991119128B31E3238731F32F893180
:100F9600E4218731F32F97318F278731F32F4101D2
:100FA6006B084001CB00CC014C08003A0319DC2F3A
:100FB600F32F4B08003A0319AC2F013A0319B02F4F
:100FC600033A0319B42F013A0319B82F073A031944
:100FD600C12F013A0319CA2F033A0319CE2FF32F53
:100FE60008006400800101310130FE020030FF3B41
:100FF6007F087E04031DF52F00349631E1268831E3
:101006004E0193129D1608004E01191A0B280C2842
:101016001028700842019A00272840016508031924
:101026001528162827286708A03E8600870170081D
:1010360081006708013E0739F1007108E7004E019B
:10104600191201304001E5024E01191608003B3025
:101056004001BD003808BF003708BE00C001C1010D
:10106600C701C8013E30AF000030B0003A08B200F8
:101076003908B1003D30B3009731C32788313E307F
:101086008600003087004231403F40013707840028
:10109600413F383D8500800108004301D201D3015C
:1010A6007330D4000030D5003F30D6000030D70072
:1010B6003F30D8000030D9000630DA000030DB00BF
:1010C60040011019672868286B284101E70172283A
:1010D600101D6E286F28722801304101E700083084
:1010E6004001D5000030D60008004301DC01DD01D7
:1010F6007330DE000030DF003F30E0000030E100FA
:101106003F30E2000030E3004F30E4000030E500FD
:1011160040010D1C8F289028932801304101E500DD
:1011260040010D18972898289A284101E5010730B3
:101136004001D5000030D60008004301B401B501D6
:101146007330B6000030B7003F30B8000030B90049
:101156003F30BA000030BB005B30BC000030BD0041
:1011660040010E19B728B828BB284101E701C2285B
:101176000E1DBE28BF28C22801304101E7000B30F2
:101186004001D5000030D60008004201B001B1018F
:101196007330B2000030B3003F30B4000030B50009
:1011A6003F30B6000030B7006630B8000030B900F6
:1011B60040019B169C1099101911991119160630A9
:1011C600F0003030890BE528F00BE52800324001AD
:1011D6009C1099101911991119129B120630D500FD
:1011E6000030D6000800770878040319FB28FC288D
:1011F60023290130FB0006290130F735F80D890B4C
:1012060000290130FB07F81F09290A29FF28780859
:101216007A02031D102977087902031C1329142961
:1012260018297708F9027808FA3B0130F836F70CE6
:10123600890B19290130FB02031D222923290A29BA
:101246007A08F8007908F70008004E019912D7309D
:101256004201EC000A30ED004E011912A83042019D
:10126600EE001730EF0048309F0090309D0026308A
:101276009E000A309B001A309C0003304101ED00AD
:101286000030EE00973116278931E7304101ED0035
:101296001630EE009731222789314101CE01CF0168
:1012A6004001E701E6010830E500E401E301E2015F
:1012B6004E0199160800F401F5017008710403192E
:1012C6006529662993290130F60070290130F03529
:1012D600F10D890B6A290130F607F11F732974296C
:1012E60069290130F435F50D890B752971087302EA
:1012F600031D7F2970087202031C8229832988290D
:101306007008F2027108F33B74140130F136F00CE8
:10131600890B89290130F602031D92299329742924
:101326007508F1007408F000080040019801990161
:101336009A019B019C01FF309200FF3093007F30A1
:101346009400FF3095000F309600FF307E01B80004
:10135600FF30C3003F30CE00FF30D9000730E40035
:10136600B901C401CF01DA01E501BA01C501D00115
:10137600DB01E601FF30BB00FF30C600FF30D100C5
:10138600FF30DC000730E700FF30BC00FF30C7004D
:10139600FF30D200FF30DD000F30E80016307D014F
:1013A600CB000F307E01A700BD01BE01BF01C80101
:1013B600C901CA01D301D401D501E901EA01EB0152
:1013C60008004301C801C9017330CA000030CB00D0
:1013D6003F30CC000030CD003F30CE000030CF0093
:1013E6007D30D0000030D10040010C1BFB29FC29C8
:1013F600FE294101E20140010C1F022A032A062AA6
:1014060001304101E2004001570803190B2A0C2A5A
:101416002E2AD701AA30F0008831072089312830DA
:101426004001B7002730B8000030B9009830BA0044
:10143600410162084001C900CA014908BB004A08C7
:10144600BC0088312A2089312830F2002730F30089
:1014560097317727893109304001D5000030D60011
:1014660008004301A001A1016D30A2000030A300D5
:101476007830A4000030A5003F30A6000030A70059
:101486007330A8000030A90001304101DE004001A0
:10149600DF01DC019B169C10991419119911191280
:1014A6000630F2003030890B562AF20B562A0032EB
:1014B600400119129911191199109C109B12570885
:1014C6000319662A672A7F2AD701AA30F0008831D5
:1014D60007208A3141016808F000883107208A31E7
:1014E60041014508F000883107208A31410144084E
:1014F600F000883107208A310F304001D5000030D6
:10150600D6000800FB014001A71F8A2A8B2A922ACF
:10151600A609A709A60A0319A70A0130FB00A51FF9
:10152600952A962A9B2AA409A509A40A0319A50A9D
:10153600240825040319A02AA12AC82A0130FA0082
:10154600AB2A0130A435A50D890BA52A0130FA076F
:10155600A51FAE2AAF2AA42A25082702031DB52AED
:1015660024082602031CB82AB92ABD2A2408A60282
:101576002508A73B0130A536A40C890BBE2A0130ED
:10158600FA02031DC72AC82AAF2A7B080319CC2AE8
:10159600CD2AD22AA609A709A60A0319A70A270847
:1015A600A5002608A400080040016435203E8600F8
:1015B600013087000030C03FC13F42019D1CE42A34
:1015C600E52AF82A40016435203E8600013087006E
:1015D60001154101460847040319F22AF32AF82A9D
:1015E60047088A0046080A008A3142011D1DFC2A66
:1015F600FD2A102B40016435203E8600013087000D
:10160600811441014808490403190A2B0B2B102B9E
:1016160049088A0048080A008B3142011908F0007F
:1016260040016408013E0739F10071086306031D95
:101636001D2B1E2B1F2B2A2B6408E63E860001302D
:101646008700700881007108E4000130E207080095
:10165600750876040319302B312B372B7508760461
:10166600031D362B372B3C2B730897312E278B31D6
:10167600862B750886007608870049311600010416
:101686000319462B472B672B7508860076088700BB
:101696004931403FF700413FF8007508860076085B
:1016A60087004231403FF900413FFA007A08803A0C
:1016B600FB007808803A7B02031D632B77087902CA
:1016C6000318662B672B862B75088600760887001D
:1016D60042317508840076088500003FF700013F17
:1016E600F800403F77078400413F783D8500730846
:1016F6008000750886007608870042310130810730
:1017060041310318810A08004001A101F71F8C2B03
:101716008D2B942BF609F709F60A0319F70A0130FF
:10172600A100F91F972B982B9F2BF809F909F80AA6
:101736000319F90A0130A106A201A301760877046C
:101746000319A62BA72BD42B0130A000B12B0130F7
:10175600F635F70D890BAB2B0130A007F71FB42B1D
:10176600B52BAA2B0130A235A30D890BB62B770812
:101776007902031DC02B76087802031CC32BC42BE9
:10178600C92B7608F8027708F93B22140130F736A0
:10179600F60C890BCA2B0130A002031DD32BD42BC8
:1017A600B52B21080319D82BD92BDE2BA209A309A7
:1017B600A20A0319A30A2308F7002208F600080064
:1017C6004301BE01BF017330C0000030C1003F308D
:1017D600C2000030C3003F30C4000030C5006D3089
:1017E600C6000030C70040018E1CFA2BFB2BFE2BD7
:1017F60001304101E40040018E18022C032C1B2C01
:101806004101E40140019B169C149910191199118C
:1018160019120630F0003030890B0F2CF00B0F2C0C
:10182600003240019C1099101911991119129B123E
:101836000E1C1E2C1F2C222C01304101E3004001FE
:101846000E18262C272C3F2C4101E30140019B1644
:101856009C1099101915991119120630F0003030A4
:10186600890B332CF00B332C003240019C1099105D
:101876001911991119129B120A30D5000030D600A1
:10188600080097313D278C31893128218C318B17FF
:101896008B130B17400195018F01960193010F30B1
:1018A60041019E00400115131B1395129B129010C7
:1018B60090148D138D170C167E01381239164001BF
:1018C60092158C157E01B811B915400192167E014C
:1018D600B812B91640018C168C147E01B810B914D2
:1018E60040011417941312170C177E01381339137D
:1018F600400116157E0164116511400114157E0123
:101906004E114F11400114147E014E104F1040012C
:1019160094148E147E01CE10CF10400113140D14B2
:101926007E0143104414400114120E121A169C1024
:101936009910191199111912973161278C31973124
:101946004D278C31A52C8331DF2B400122088600E0
:101956008701403FA400413FA500240884002508D4
:1019660085001200253A031DB92CBA2C5B2D2208DE
:10197600860087010130810741310318810A410140
:10198600A801A9010030D400FF30AA00FF30AB0047
:101996004001220886008701403FA800413FA90078
:1019A60028088400290885001200753A031DDC2CDE
:1019B600DD2C512D2308860087010108840085014E
:1019C60002308107003FAA00013FAB002808013E14
:1019D600A4000030293DA5002208860087012408BE
:1019E600C03F2508C13F482D2030AE000130AE0271
:1019F6002E08203E8600023087000A30F7000030AD
:101A0600F8002B08FA002A08F9008831F6208C31F4
:101A16007708303E81000A30F0000030F1004001C6
:101A26002B08F3002A08F20089315E218C317108F7
:101A36004001AB007008AA002A082B040319242DC4
:101A4600252D412D2E08031D292D2A2DF92C412D3A
:101A56002E08203E8600023087000108A400A5015A
:101A66002408F3002508F4002108F6002008F500F4
:101A76008B312B238C3101304001AE0720302E06EE
:101A8600031D462D472D2B2D752D2808840029086A
:101A960085000008753A0319F72C512D40012208DC
:101AA600860087010130810741310318810A752DAF
:101AB600220886008701403FA400413FA500240874
:101AC6008400250885000008A600A7012608F30063
:101AD6002708F4002108F6002008F5008B312B2397
:101AE6008C31512D080040018C1A7A2D7B2DF72D53
:101AF6008C1D7E2D7F2DF72D01304101D700400131
:101B060059080319872D882D942DF030610203188A
:101B16008D2D8E2D942D0130E1074101D701400115
:101B2600D9014201E201E301E401E5010A30400185
:101B3600A4000030A5006430F6000030F70061080C
:101B4600A800A9012808F8002908F9008B31872385
:101B56008D3177084001A7007608A6008A318522D4
:101B66008D31400125084201E70040012408420169
:101B7600E6000A304001A4000030A5000A30F60055
:101B86000030F7006108A800A9012808F800290814
:101B9600F9008B3187238D3177084001A70076083D
:101BA600A6008A3185228D31400125084201E900CF
:101BB600400124084201E8000A304001A400003038
:101BC600A5006108A800A9012808A6002908A70001
:101BD6008A3185228D31400125084201EB00400102
:101BE60024084201EA00142E8C18FA2DFB2D142E1F
:101BF6008C1DFE2DFF2D142E01304101D600400113
:101C060058080319072E082E942D610803190C2E67
:101C16000D2E942D0130E1024101D6014001D8017B
:101C2600942D40011B179C1406304001A80030304B
:101C3600890B1B2EA80B1B2E000040019C101B13AA
:101C460057080319272E282E402ED701AA30F00058
:101C5600883107208D3140016108F0008831072066
:101C66008D3140016D08F000883107208D3140012B
:101C76006C08F000883107208D3101304001D50015
:101C86000030D600080040018C1A4A2E4B2E9D2E9D
:101C96008C1D4E2E4F2E9D2E01304101D700400146
:101CA60059080319572E582E692E003069026230E2
:101CB600031968020318602E612E692E0130E807A9
:101CC6000030E93D4101D7014001D9014201C4017B
:101CD600C501C601C701C801C9010A30F7000030B5
:101CE600F8000A30F0000030F10040016908F30006
:101CF6006808F20089315E218E317108FA00700899
:101D0600F9008831F6208E3178084201CB00770839
:101D1600CA000A30F7000030F80040016908FA00EE
:101D26006808F9008831F6208E3178084201CD0026
:101D36007708CC0040018C18A12EA22EF12E8C1D06
:101D4600A52EA62EF12E01304101D60040015808DD
:101D56000319AE2EAF2EBD2E680869040319B42EE2
:101D6600B52EBD2E0130E8020030E93B4101D60117
:101D76004001D8014201C401C501C601C701C8011D
:101D8600C9010A30F7000030F8000A30F0000030D0
:101D9600F10040016908F3006808F20089315E210C
:101DA6008E317108FA007008F9008831F6208E31FC
:101DB60078084201CB007708CA000A30F7000030E5
:101DC600F80040016908FA006808F9008831F62031
:101DD6008E3178084201CD007708CC0040011B17F0
:101DE600991506304001A0003030890BF82EA00B63
:101DF600F82E0000400199111B1357080319042FF0
:101E0600052F1D2FD701AA30F000883107208E310B
:101E160040016108F000883107208E3140016D08CD
:101E2600F000883107208E3140016C08F0008831BF
:101E360007208E3104304001D5000030D60008005E
:101E460040018C1A272F282F7A2F8C1D2B2F2C2FF1
:101E56007A2F01304101D700400159080319342F68
:101E6600352F462F00306B02623003196A020318C1
:101E76003D2F3E2F462F0130EA070030EB3D410152
:101E8600D7014001D9014201CE01CF01D001D101D4
:101E9600D201D3010A30F7000030F8000A30F00012
:101EA6000030F10040016B08F3006A08F200893146
:101EB6005E218F317108FA007008F9008831F6202A
:101EC6008F3178084201D5007708D4000A30F70030
:101ED6000030F80040016B08FA006A08F900883102
:101EE600F6208F3178084201D7007708D6004001E6
:101EF6008C187E2F7F2FCE2F8C1D822F832FCE2FD7
:101F060001304101D6004001580803198B2F8C2F50
:101F16009A2F6A086B040319912F922F9A2F01307A
:101F2600EA020030EB3B4101D6014001D8014201F3
:101F3600CE01CF01D001D101D201D3010A30F70081
:101F46000030F8000A30F0000030F10040016B0864
:101F5600F3006A08F20089315E218F317108FA00B8
:101F66007008F9008831F6208F3178084201D500D3
:101F76007708D4000A30F7000030F80040016B08FB
:101F8600FA006A08F9008831F6208F317808420194
:101F9600D7007708D60040011B17191506304001F7
:101FA600A0003030890BD52FA00BD52F00004001A3
:101FB60019111B1357080319E12FE22FFA2FD70126
:101FC600AA30F000883107208F3140016108F00007
:101FD600883107208F3140016D08F00088310720D5
:101FE6008F3140016C08F000883107208F310330B3
:101FF6004001D5000030D6000800283409340034EA
:102006000034003400340734083400340034F93422
:102016001634003400340034003400340034003404
:10202600003400340034003400340034003400340A
:1020360000340034003400340034003400340034FA
:10204600003400340034003400341634173422349B
:10205600173400340034003400343F3406345B3423
:102066004F3466346D347D3407347F346F347734BF
:102076007C3439345E3479347134763454345C3497
:102086005E3473343834373450345C3473346734E4
:1020960050346D3478343E341C342A3476346E34FD
:0220A6005B34A9
:102DBC004E019312080050019E1108000134033497
:102DCC00013442011D121D16080041016E08D1008C
:102DDC006D08D00008000B3400340B340034283458
:102DEC00003401340B3440016508031DFE2E002F06
:102DFC000130012F00300800603051018D008F012F
:102E0C00910106309300920108004E010C10003025
:102E1C004101ED000030EE009631EB2697310800B1
:102E2C0041016D086E0403191C2F1D2F212F6E08F4
:102E3C00C9006D08C800080041016D086E04031933
:102E4C00282F292F2D2F6E08C7006D08C6000800EB
:102E5C00F2009631F9269731003A0319362F372FA5
:102E6C002F2F7208F0008831072097310800973116
:102E7C00022797318931982197318931282197314F
:102E8C0088310020973197310B279731080040018A
:102E9C0016147E016414803041019D0080309E0028
:102EAC001D140B304101ED006230890B5B2FED0BD3
:102EBC005B2F000008004B011E12F0309E051F080E
:102ECC001F3940389F001F08F03904389F001F122B
:102EDC0006309C009E174E018C1296168B170B1702
:102EEC000800852F72088600730887000108F0001F
:102EFC008831072097310130F2070030F33D72081A
:102F0C008600730887000108031D8D2F8E2F782FE4
:102F1C0008004301AA01AB017330AC000030AD00D6
:102F2C003F30AE000030AF003F30B0000030B10099
:102F3C000730B2000030B3000C304001D500003037
:102F4C00D60008000830400165020318AE2FAF2FE1
:102F5C00C02F6608A03E86008701010842019A0036
:102F6C0040016608013E0739F0007008E6000130A8
:102F7C00E507C22F4E011912080040013208B600B5
:102F8C003108B500D42F3008A1002F08A00035302F
:102F9C00A2003308A3008C31A824973140013508D6
:102FAC008400360885001200031DDD2FDE2FC92F8B
:102FBC00AF01B0010800F401F501701CE62FE72FFA
:102FCC00EB2F7208F4077308F53D0130F235F30D61
:102FDC00890BEC2F0130F136F00C890BF12F7008B6
:102FEC007104031DFA2FFB2FE32F7508F1007408F1
:102FFC00F000080043346F346E34743472346F3420
:10300C006C3420344F34753474343A3420342534D1
:08301C0075340A340D34003450
:020000040001F9
:0A000E008F3FFF3F9F3FFF3FFF3F82
:00000001FF
