:040000008031D02853
:1000060008007E1480317E01551C0A280B285728CB
:1000160001304001D4070030D53D5F03031D14288D
:10002600152834287B08031D19281A282528981610
:100036004B019D01400168084B019C009E17013051
:10004600FB0054287B03031D29282A2854289816C8
:100056004B019D01400168084B019C009E17FB0166
:1000660054285F08031D3828392854287B08031DA7
:100076003D283E28492898164B019D0140016808F5
:100086004B019C009E170130FB0754287B03031D80
:100096004D284E28542898164B019D019C019E130D
:1000A600FB017E0155107A284E018C1E5B285C28C8
:1000B6007A2840016308031D612862286C2898127B
:1000C6004B019D01F2309C009E1701304001E30078
:1000D60078286303031D70287128782898164B0129
:1000E6009D019C019E134001E3014E018C124E01BD
:1000F6000D1E7E287F28A3280D12420119084001F3
:10010600E0005E08031D882889289028AA3060062A
:1001160003198E288F289028CE285E08443E860034
:100126008701600881000130DE0703305E02031C90
:100136009D289E28A3284508E1004608DF00DE0129
:100146004E010D1CA728A828CE280D1041011C0819
:10015600F1001B08F000C12871084001DB0070089F
:10016600DA00CC2871084001D9007008D800CC28E4
:1001760071084001D7007008D600CC287A08003AEA
:100186000319AF28013A0319B528033A0319BB2806
:10019600CC2841019D147E1009008031D2288E3171
:1001A600E6268031E4008E31E7268031E5008E3187
:1001B600E8268031E6008E31E9268031E700FA0133
:1001C600FB01443084000030850020308E31EA2661
:1001D6008031A03084000030850028308E31EA2638
:1001E6008031203084000130850040308E31EA268F
:1001F60080317E1040018431852C400129088039E8
:10020600B3002935B900A81F09290A290B29391471
:10021600390803190F2910291F29390A031D142922
:1002260015291D290030A9000030A8000030A700BC
:100236000030A600A81727290030A9000030A80022
:100246000030A7000030A6002D088039B3062D35F2
:10025600B400AC1F2F29302931293414340803196E
:10026600352936294529340A031D3A293B294329CC
:100276000030AD000030AC000030AB000030AA000A
:10028600AC174D290030AD000030AC000030AB009B
:100296000030AA0034080319512952295729390870
:1002A600031D5629572960290030A9000030A800EF
:1002B6000030A7000030A6003A2B2608F2002C08D2
:1002C6008F312D27813173084001BF007208BE00AF
:1002D6003E08AE00AF01B001B1013108B8003008E8
:1002E600B7002F08B6002E08B5003F08AE00AF01D4
:1002F600B001B1013108BD003008BC002F08BB00B9
:100306002E08BA002708F2002B088F312D278131DD
:1003160073084001BF007208BE003E08AE00AF0180
:10032600B001B1012E08B5072F08B63D3008B73D1C
:100336003108B83D3F08AE00AF01B001B1012E084B
:10034600BA072F08BB3D3008BC3D3108BD3D280823
:10035600F2002A088F312D27813173084001BF0032
:100366007208BE003E08AE00AF01B001B1012E0812
:10037600B5072F08B63D3008B73D3108B83D3F08F0
:10038600AE00AF01B001B1012E08BA072F08BB3D80
:100396003008BC3D3108BD3D0830B535B60DB70D4A
:1003A600B80D890BD0292708F2002A088F312D278E
:1003B600813173084001BF007208BE003E08B507D0
:1003C6003F08B63D0030B73DB83D2608F2002B0881
:1003D6008F312D27813173084001BF007208BE009E
:1003E6003E08B5073F08B63D0030B73DB83D08307A
:1003F600B535B60DB70DB80D890BFB292608F200E9
:100406002A088F312D27813173084001BF007208F9
:10041600BE003E08B5073F08B63D0030B73DB83DC3
:100426002708F2002C088F312D27813173084001EF
:10043600BF007208BE003E08BA073F08BB3D003049
:10044600BC3DBD3D2808F2002B088F312D27813198
:1004560073084001BF007208BE003E08BA073F0895
:10046600BB3D0030BC3DBD3D2808F2002C088F3155
:100476002D27813173084001BF007208BE003E0877
:10048600AE003F08AF00B001B1010830AE35AF0D88
:10049600B00DB10D890B492A2E08BA072F08BB3DAE
:1004A6003008BC3D3108BD3D3508AE003608AF000A
:1004B6003708B0003808B1001830B136B00CAF0CB0
:1004C600AE0C890B602A2E08BA072F08BB3D3008F0
:1004D600BC3D3108BD3D0830B535B60DB70DB80D7C
:1004E600890B6F2A39083407AE00AF01AF0D2E080D
:1004F600823EBE00FF302F3DBF00982A0130BA353C
:10050600BB0DBC0DBD0D890B822AB81F8B2A8C2A08
:100516008D2A3A140130B535B60DB70DB80D890BD5
:100526008E2AFF30BE07FF30BF3DBC1F9B2A9C2A88
:10053600812AB401B81FA02AA12ABD2AFF30350599
:10054600AE00FF303605AF00FF303705B0007F3014
:100556003805B100310830042F042E040319B42ADB
:10056600B52AB82A0130B400BD2A3A1CBB2ABC2AD7
:10057600BD2AB52A34080319C12AC22AE82A01303D
:10058600BA070030BB3DBC3DBD3D3D1CCB2ACC2A45
:10059600E82A3A08AE003B08AF003C08B0003D0828
:1005A600B1000130B200B137B00CAF0CAE0CB20BDB
:1005B600D62A3108BD003008BC002F08BB002E0823
:1005C600BA000130BE070030BF3D3F08803AAE009A
:1005D60080302E02031DF12AFF303E02031CF42A4E
:1005E600F52AFF2A7F304001BD008030BC00003074
:1005F600BB000030BA00302B40013F08803AAE0005
:1006060080302E02031D092B01303E0203180C2BED
:100616000D2B182B00304001BD000030BC0000300F
:10062600BB000030BA00B301302B40013E08B900D0
:10063600FF30BA05FF30BB057F30BC050030BD0575
:10064600391C262B272B282BBC173908AE00013066
:10065600AE36890B2B2B2E08BD003308BD043D0892
:10066600A9003C08A8003B08A7003A08A600080015
:1006760000340034003400340034003400340034D4
:1006860000340034003400340034003400340034C4
:1006960000340034003400340034003400340034B4
:1006A60000340034003400340034003400340034A4
:1009060000340034703051018E0040019212981666
:10091600141414169411FB01E3017E0153145414AC
:1009260055104E010C1216160B178B170B104001A3
:1009360014151215121614157E014E1540011215C6
:100946007E013815400112167E01381640019416B4
:100956007E01CE16543041019D00E0309E004E01CE
:100966000D10171441011D149D144B011E12F03079
:100976009E051F121F081F3940389F001F08F039B7
:1009860004389F009D019C014E018C1296164B0166
:100996009E178731E5278431400161088731072793
:1009A60084314001E8000030550203300319540237
:1009B600031CDE2CDF2C0A2DD401D501F42C4101B9
:1009C6001D08033948389D00FF2C41011D080339D5
:1009D60008389D00FF2C41011D08033910389D0081
:1009E600FF2C7A08003A0319E22C013A0319E82C85
:1009F600033A0319EE2CFF2C41019D140130FA072E
:100A060003307A02031C082D092D0A2DFA01400134
:100A16005A08003ED000FE305B3DD1005808003E2B
:100A2600CE00FE30593DCF003F30A9008030A800EF
:100A3600D430A7008330A6005008F2005108F30016
:100A4600890D893B8909F400F5000130863162265B
:100A5600843175084001AD007408AC007308AB0022
:100A66007208AA0081310021843140012908410120
:100A7600C700400128084101C6004001270841017E
:100A8600C500400126084101C4003D304001A900CF
:100A96004830A8000030A7000030A6004E08F2003B
:100AA6004F08F300890D893B8909F400F5000130F0
:100AB60086316226843175084001AD007408AC00A9
:100AC6007308AB007208AA0081310021843140010D
:100AD60029084101C300400128084101C200400124
:100AE60027084101C100400126084101C00020300D
:100AF6004001BB00FF30BC008730BD005B08BF0073
:100B06005A08BE005908C1005808C0005708C3005B
:100B16005608C2008F31512784312030F3008E31C0
:100B2600FA268431CF2C8031D02840012708860050
:100B36008701403FA900413FAA00290884002A08EE
:100B460085001200253A031DA92DAA2D472E270838
:100B5600860087010130810741310318810ACA01E5
:100B6600CB010030DC00FF30CC00FF30CD00270881
:100B760086008701403FAD00413FAE002D0884004E
:100B86002E0885001200753A031DCA2DCB2D3D2E69
:100B96002808860087010108840085010230810744
:100BA600003FAF00013FB0002D08013EA900003014
:100BB6002E3DAA002708860087012908C03F2A087B
:100BC600C13F342E2030B3000130B3023308A03EBB
:100BD600860087010A30F2000030F3003008F50085
:100BE6002F08F4008F31752785317208303E810059
:100BF6000A30F2000030F30040013008F5002F08FB
:100C0600F4008731AB27853173084001B0007208C4
:100C1600AF002F0830040319112E122E2D2E330883
:100C2600031D162E172EE72D2D2E3308A03E860007
:100C360087010108A900AA012908F2002A08F30081
:100C46002608F5002508F4008F31A72785310130E5
:100C56004001B30720303306031D322E332E182EE3
:100C6600612E2D0884002E0885000008753A0319A8
:100C7600E52D3D2E400127088600870101308107BA
:100C860041310318810A612E270886008701403FFB
:100C9600A900413FAA00290884002A088500000807
:100CA600AB00AC012B08F2002C08F3002608F50077
:100CB6002508F4008F31A72785313D2E0800400115
:100CC600A00020080319682E692E7D2EF51F6C2EB4
:100CD6006D2E7D2E7209A2007309A3007409A4006B
:100CE6007509A500A20A0319A30A0319A40A031980
:100CF600A50A852E7508A5007408A4007308A3002C
:100D06007208A2007508740473047204031D8C2E05
:100D16008D2E962E0030F5000030F4000030F300E2
:100D26000030F200062F9630A100A22E0130A10756
:100D36000130A536A40CA30CA20C890B9C2EFE3008
:100D46002505031DA72EA82E992EB82E0130A10722
:100D56000130A2070030A33DA43DA53D0130A536D4
:100D6600A40CA30CA20C890BB22EFF302505031D83
:100D7600BD2EBE2EA92EC82E0130A1020130A235ED
:100D8600A30DA40DA50D890BC22EA41BCB2ECC2E14
:100D9600D22E023021020318D12ED22EBF2E2118B8
:100DA600D52ED62EDE2EFF30A205FF30A3057F30CE
:100DB600A405FF30A5050310A10C2108F600F701D4
:100DC600F801F9011830F635F70DF80DF90D890B14
:100DD600E62E7608A2047708A3047808A404790806
:100DE600A50420080319F82EF92EFE2EF51FFC2E59
:100DF600FD2EFE2EA5172508F5002408F40023086D
:100E0600F3002208F2000800F2000630720203180E
:100E16000D2F0E2F102F9530AA2F0B3072020318AC
:100E2600152F162F172F0E2F1030720203181C2F96
:100E36001D2F1E2F0E2F153072020318232F242F5D
:100E4600252F0E2F1F30720203182A2F2B2F2C2F1F
:100E56000E2F243072020318312F322F332F0E2F0C
:100E6600293072020318382F392F3A2F0E2F3330BC
:100E7600720203183F2F402F422F9C30AA2F3D307D
:100E860072020318472F482F4A2FA430AA2F463044
:100E9600720203184F2F502F522FAC30AA2F4F300B
:100EA60072020318572F582F5A2FB430AA2F7430B6
:100EB600720203185F2F602F622FBB30AA2F8D306E
:100EC60072020318672F682F6A2FC330AA2FA1302A
:100ED600720203186F2F702F722FCB30AA2FAB30F0
:100EE60072020318772F782F7A2FD230AA2FB530B7
:100EF600720203187F2F802F822FDA30AA2FBF307D
:100F060072020318872F882F8A2FE230AA2FC93042
:100F1600720203188F2F902F922FEB30AA2FD33007
:100F260072020318972F982F9A2FF230AA2FDD30CE
:100F3600720203189F2FA02FA22FF830AA2FE73096
:100F460072020318A72FA82FAA2FFC30AA2F080079
:100F5600F701F801720873040319B22FB32FE02FBB
:100F66000130F600BD2F0130F235F30D890BB72F96
:100F76000130F607F31FC02FC12FB62F0130F7350A
:100F8600F80D890BC22F73087502031DCC2F72084A
:100F96007402031CCF2FD02FD52F7208F4027308CA
:100FA600F53B77140130F336F20C890BD62F01305E
:100FB600F602031DDF2FE02FC12F7808F300770814
:100FC600F200080014307D01CB0005307E01A3003D
:100FD6001730B8002730CE00CE114E1258304201DD
:100FE6009F0090309D0026309E00D0309B009C01D3
:100FF6004E0117160D12080056343A34253475344E
:10100600203443343A3425347534203454343A3455
:0E101600253475340D340A34003400340234AD
:101DCC0084340334F2340034640080010131890B13
:101DDC00EB2E0034F2004E018D1DF52EF62EF12E59
:101DEC00720842019A000800052F73088600013022
:101DFC00870001088E31F0268E310130F30773080D
:101E0C008600013087000108031D0D2F0E2FFB2EBD
:101E1C00080040013708BA003608B900202F3508F1
:101E2C00A6003408A5003930A7003808A800853171
:101E3C0098258F314001390884003A08850012003A
:101E4C00031D292F2A2F152FB401B50108004001BD
:101E5C00A400A001A1017208F400F5017408A2000D
:101E6C007508A300241C3B2F3C2F402F2208A007F1
:101E7C002308A13D0130A235A30D890B412F03107E
:101E8C00A40C2408031D4B2F4C2F382F2108F300D2
:101E9C002008F20008003E304101C80040013B0818
:101EAC004101C9000130CA00CB01CC01D201D301E0
:101EBC00C9304001B4000030B5003D08B7003C0803
:101ECC00B600C830B8008F310F278F3140013B0866
:101EDC0041014B0786000130870081010800720820
:101EEC00730403197A2F7B2FA22F0130F600852F54
:101EFC000130F235F30D890B7F2F0130F607F31FFC
:101F0C00882F892F7E2F73087502031D8F2F72085F
:101F1C007402031C922F932F972F7208F4027308EC
:101F2C00F53B0130F336F20C890B982F0130F60299
:101F3C00031DA12FA22F892F7508F3007408F2003E
:101F4C000800740875040319AC2FAD2FB32F740857
:101F5C007504031DB22FB32FB82F720880310320E4
:101F6C008F31FF2F74088600870149311600010458
:101F7C000319C12FC22FE12F740886008701493144
:101F8C00403F4001A000413FA1007408860087013A
:101F9C004231403FA200413FA3002308803AA400F5
:101FAC002108803A2402031DDD2F20082202031889
:101FBC00E02FE12FFF2F740886008701423174084F
:101FCC00840075088500003F4001A000013FA1007E
:101FDC00403F20078400413F213D8500720880006E
:101FEC0074088600870142310130810741310318A2
:041FFC00810A08004E
:020000040001F9
:04000E00ED3FE727B4
:04001400FF3FFF3F6C
:00000001FF
